{
  "contractName": "MARKETPLACE",
  "abi": [
    {
      "inputs": [],
      "stateMutability": "nonpayable",
      "type": "constructor"
    },
    {
      "inputs": [
        {
          "internalType": "uint256",
          "name": "",
          "type": "uint256"
        }
      ],
      "name": "Items",
      "outputs": [
        {
          "internalType": "uint256",
          "name": "itemId",
          "type": "uint256"
        },
        {
          "internalType": "contract IERC721",
          "name": "NFT",
          "type": "address"
        },
        {
          "internalType": "uint256",
          "name": "tokenId",
          "type": "uint256"
        },
        {
          "internalType": "uint256",
          "name": "price",
          "type": "uint256"
        },
        {
          "internalType": "address payable",
          "name": "seller",
          "type": "address"
        },
        {
          "internalType": "bool",
          "name": "sold",
          "type": "bool"
        }
      ],
      "stateMutability": "view",
      "type": "function",
      "constant": true
    },
    {
      "inputs": [],
      "name": "feeAccount",
      "outputs": [
        {
          "internalType": "address payable",
          "name": "",
          "type": "address"
        }
      ],
      "stateMutability": "view",
      "type": "function",
      "constant": true
    },
    {
      "inputs": [],
      "name": "feePercent",
      "outputs": [
        {
          "internalType": "uint256",
          "name": "",
          "type": "uint256"
        }
      ],
      "stateMutability": "view",
      "type": "function",
      "constant": true
    },
    {
      "inputs": [],
      "name": "itemCount",
      "outputs": [
        {
          "internalType": "uint256",
          "name": "",
          "type": "uint256"
        }
      ],
      "stateMutability": "view",
      "type": "function",
      "constant": true
    },
    {
      "inputs": [
        {
          "internalType": "contract IERC721",
          "name": "_NFT",
          "type": "address"
        },
        {
          "internalType": "uint256",
          "name": "_tokenId",
          "type": "uint256"
        },
        {
          "internalType": "uint256",
          "name": "_price",
          "type": "uint256"
        }
      ],
      "name": "makeItem",
      "outputs": [],
      "stateMutability": "nonpayable",
      "type": "function"
    },
    {
      "inputs": [
        {
          "internalType": "uint256",
          "name": "_itemId",
          "type": "uint256"
        }
      ],
      "name": "getTotalPrice",
      "outputs": [
        {
          "internalType": "uint256",
          "name": "",
          "type": "uint256"
        }
      ],
      "stateMutability": "view",
      "type": "function",
      "constant": true
    },
    {
      "inputs": [
        {
          "internalType": "uint256",
          "name": "_itemId",
          "type": "uint256"
        }
      ],
      "name": "purchaseItem",
      "outputs": [],
      "stateMutability": "payable",
      "type": "function",
      "payable": true
    }
  ],
  "bytecode": "0x60c060405234801561001057600080fd5b506001600081905550600a60a081815250503373ffffffffffffffffffffffffffffffffffffffff1660808173ffffffffffffffffffffffffffffffffffffffff168152505060805160a051610de36100896000396000818161026f015261029701526000818161024501526104860152610de36000f3fe6080604052600436106100705760003560e01c80637fd6f15c1161004e5780637fd6f15c1461010d578063ca7dd37514610138578063d38ea5bf14610175578063fa00afc71461019157610070565b806317b47cc41461007557806365e17c9d146100b75780636bfb0d01146100e2575b600080fd5b34801561008157600080fd5b5061009c60048036038101906100979190610826565b6101ba565b6040516100ae9695949392919061091d565b60405180910390f35b3480156100c357600080fd5b506100cc610243565b6040516100d9919061097e565b60405180910390f35b3480156100ee57600080fd5b506100f7610267565b6040516101049190610999565b60405180910390f35b34801561011957600080fd5b5061012261026d565b60405161012f9190610999565b60405180910390f35b34801561014457600080fd5b5061015f600480360381019061015a9190610826565b610291565b60405161016c9190610999565b60405180910390f35b61018f600480360381019061018a9190610826565b6102f4565b005b34801561019d57600080fd5b506101b860048036038101906101b39190610a04565b6105bb565b005b60026020528060005260406000206000915090508060000154908060010160009054906101000a900473ffffffffffffffffffffffffffffffffffffffff16908060020154908060030154908060040160009054906101000a900473ffffffffffffffffffffffffffffffffffffffff16908060040160149054906101000a900460ff16905086565b7f000000000000000000000000000000000000000000000000000000000000000081565b60015481565b7f000000000000000000000000000000000000000000000000000000000000000081565b600060647f000000000000000000000000000000000000000000000000000000000000000060646102c29190610a86565b60026000858152602001908152602001600020600301546102e39190610adc565b6102ed9190610b65565b9050919050565b600260005403610339576040517f08c379a000000000000000000000000000000000000000000000000000000000815260040161033090610bf3565b60405180910390fd5b6002600081905550600061034c82610291565b9050600060026000848152602001908152602001600020905060008311801561037757506001548311155b6103b6576040517f08c379a00000000000000000000000000000000000000000000000000000000081526004016103ad90610c5f565b60405180910390fd5b813410156103f9576040517f08c379a00000000000000000000000000000000000000000000000000000000081526004016103f090610ccb565b60405180910390fd5b8060040160149054906101000a900460ff161561041557600080fd5b8060040160009054906101000a900473ffffffffffffffffffffffffffffffffffffffff1673ffffffffffffffffffffffffffffffffffffffff166108fc82600301549081150290604051600060405180830381858888f19350505050158015610483573d6000803e3d6000fd5b507f000000000000000000000000000000000000000000000000000000000000000073ffffffffffffffffffffffffffffffffffffffff166108fc8260030154846104ce9190610ceb565b9081150290604051600060405180830381858888f193505050501580156104f9573d6000803e3d6000fd5b5060018160040160146101000a81548160ff0219169083151502179055508060010160009054906101000a900473ffffffffffffffffffffffffffffffffffffffff1673ffffffffffffffffffffffffffffffffffffffff166323b872dd303384600201546040518463ffffffff1660e01b815260040161057c93929190610d2e565b600060405180830381600087803b15801561059657600080fd5b505af11580156105aa573d6000803e3d6000fd5b505050505050600160008190555050565b600260005403610600576040517f08c379a00000000000000000000000000000000000000000000000000000000081526004016105f790610bf3565b60405180910390fd5b60026000819055506000811161061557600080fd5b6001600081548092919061062890610d65565b91905055508273ffffffffffffffffffffffffffffffffffffffff166323b872dd3330856040518463ffffffff1660e01b815260040161066a93929190610d2e565b600060405180830381600087803b15801561068457600080fd5b505af1158015610698573d6000803e3d6000fd5b505050506040518060c0016040528060015481526020018473ffffffffffffffffffffffffffffffffffffffff1681526020018381526020018281526020013373ffffffffffffffffffffffffffffffffffffffff168152602001600015158152506002600060015481526020019081526020016000206000820151816000015560208201518160010160006101000a81548173ffffffffffffffffffffffffffffffffffffffff021916908373ffffffffffffffffffffffffffffffffffffffff160217905550604082015181600201556060820151816003015560808201518160040160006101000a81548173ffffffffffffffffffffffffffffffffffffffff021916908373ffffffffffffffffffffffffffffffffffffffff16021790555060a08201518160040160146101000a81548160ff0219169083151502179055509050506001600081905550505050565b600080fd5b6000819050919050565b610803816107f0565b811461080e57600080fd5b50565b600081359050610820816107fa565b92915050565b60006020828403121561083c5761083b6107eb565b5b600061084a84828501610811565b91505092915050565b61085c816107f0565b82525050565b600073ffffffffffffffffffffffffffffffffffffffff82169050919050565b6000819050919050565b60006108a76108a261089d84610862565b610882565b610862565b9050919050565b60006108b98261088c565b9050919050565b60006108cb826108ae565b9050919050565b6108db816108c0565b82525050565b60006108ec82610862565b9050919050565b6108fc816108e1565b82525050565b60008115159050919050565b61091781610902565b82525050565b600060c0820190506109326000830189610853565b61093f60208301886108d2565b61094c6040830187610853565b6109596060830186610853565b61096660808301856108f3565b61097360a083018461090e565b979650505050505050565b600060208201905061099360008301846108f3565b92915050565b60006020820190506109ae6000830184610853565b92915050565b60006109bf82610862565b9050919050565b60006109d1826109b4565b9050919050565b6109e1816109c6565b81146109ec57600080fd5b50565b6000813590506109fe816109d8565b92915050565b600080600060608486031215610a1d57610a1c6107eb565b5b6000610a2b868287016109ef565b9350506020610a3c86828701610811565b9250506040610a4d86828701610811565b9150509250925092565b7f4e487b7100000000000000000000000000000000000000000000000000000000600052601160045260246000fd5b6000610a91826107f0565b9150610a9c836107f0565b9250827fffffffffffffffffffffffffffffffffffffffffffffffffffffffffffffffff03821115610ad157610ad0610a57565b5b828201905092915050565b6000610ae7826107f0565b9150610af2836107f0565b9250817fffffffffffffffffffffffffffffffffffffffffffffffffffffffffffffffff0483118215151615610b2b57610b2a610a57565b5b828202905092915050565b7f4e487b7100000000000000000000000000000000000000000000000000000000600052601260045260246000fd5b6000610b70826107f0565b9150610b7b836107f0565b925082610b8b57610b8a610b36565b5b828204905092915050565b600082825260208201905092915050565b7f5265656e7472616e637947756172643a207265656e7472616e742063616c6c00600082015250565b6000610bdd601f83610b96565b9150610be882610ba7565b602082019050919050565b60006020820190508181036000830152610c0c81610bd0565b9050919050565b7f6974656d206974206e6f74207365740000000000000000000000000000000000600082015250565b6000610c49600f83610b96565b9150610c5482610c13565b602082019050919050565b60006020820190508181036000830152610c7881610c3c565b9050919050565b7f7072696365206973737565000000000000000000000000000000000000000000600082015250565b6000610cb5600b83610b96565b9150610cc082610c7f565b602082019050919050565b60006020820190508181036000830152610ce481610ca8565b9050919050565b6000610cf6826107f0565b9150610d01836107f0565b925082821015610d1457610d13610a57565b5b828203905092915050565b610d28816109b4565b82525050565b6000606082019050610d436000830186610d1f565b610d506020830185610d1f565b610d5d6040830184610853565b949350505050565b6000610d70826107f0565b91507fffffffffffffffffffffffffffffffffffffffffffffffffffffffffffffffff8203610da257610da1610a57565b5b60018201905091905056fea2646970667358221220c84671b0b05ee5f76f8502fa67a69d8f6dc40a4c764ae4a56991f5ebafefb28e64736f6c634300080e0033",
  "immutableReferences": {
    "1758": [
      {
        "length": 32,
        "start": 581
      },
      {
        "length": 32,
        "start": 1158
      }
    ],
    "1760": [
      {
        "length": 32,
        "start": 623
      },
      {
        "length": 32,
        "start": 663
      }
    ]
  },
  "source": "//SPDX-License-Identifier:MIT\r\npragma solidity >=0.5.0<0.9.0;\r\nimport \"@openzeppelin/contracts/token/ERC721/ERC721.sol\";\r\nimport \"@openzeppelin/contracts/security/ReentrancyGuard.sol\";\r\n\r\ncontract MARKETPLACE is ReentrancyGuard{\r\n\r\n    address payable public immutable feeAccount;\r\n    uint public immutable feePercent;\r\n\r\n    constructor(){\r\n        feePercent=10;\r\n        feeAccount=payable(msg.sender);\r\n    }\r\n\r\n    uint public itemCount;\r\n\r\n    struct Item{\r\n        uint itemId;\r\n        IERC721 NFT;\r\n        uint tokenId;\r\n        uint price;\r\n        address payable seller;\r\n        bool sold;\r\n    }\r\n\r\n    mapping(uint=>Item)public Items;\r\n\r\n\r\n    function makeItem(IERC721 _NFT,uint _tokenId,uint _price)external nonReentrant{\r\n        require(_price>0);\r\n        itemCount++;\r\n        _NFT.transferFrom(msg.sender,address(this),_tokenId);\r\n        Items[itemCount]=Item(itemCount,_NFT,_tokenId,_price,payable(msg.sender),false);\r\n\r\n\r\n    }\r\n\r\n    function getTotalPrice(uint _itemId)view public returns(uint){\r\n\r\n       return((Items[_itemId].price*(100 + feePercent))/100);\r\n    }\r\n\r\n\r\n    function purchaseItem(uint _itemId)external payable nonReentrant{\r\n        uint _totalPrice=getTotalPrice(_itemId);\r\n        Item storage item = Items[_itemId];\r\n        require(_itemId>0 && _itemId<=itemCount,\"item it not set\");\r\n        require(msg.value>=_totalPrice,\"price issue\");\r\n        require(!item.sold);\r\n        item.seller.transfer(item.price);\r\n        feeAccount.transfer(_totalPrice - item.price);\r\n        item.sold=true;\r\n         item.NFT.transferFrom(address(this), msg.sender, item.tokenId);\r\n\r\n    }\r\n\r\n}",
  "sourcePath": "D:\\success project\\NFTMARKETPLACE\\truffle\\contracts\\MARKETPLACE.sol",
  "compiler": {
    "name": "solc",
    "version": "0.8.14+commit.80d49f37.Emscripten.clang"
  },
  "schemaVersion": "3.4.9",
  "updatedAt": "2022-08-27T06:44:24.105Z",
  "networkType": "ethereum",
  "devdoc": {
    "kind": "dev",
    "methods": {},
    "version": 1
  },
  "userdoc": {
    "kind": "user",
    "methods": {},
    "version": 1
  }
}